:020000040800F2
:10000000D80700209D0100081D180008511600089F
:1000100000000000000000000000000000000000E0
:10002000000000000000000000000000211800088F
:1000300000000000000000001F180008251800083C
:10004000AF010008AF010008AF010008AF010008D0
:10005000AF010008AF010008AF010008AF010008C0
:10006000AF010008AF010008AF010008AF010008B0
:10007000AF010008AF01000800000000AF01000858
:1000800000000000AF0100080000000000000000B8
:10009000AF01000800000000AF010008AF01000838
:1000A000AF010008AF010008AF01000821200008DF
:1000B000AF010008AF010008AF010008AF01000860
:1000C00000F002F800F03EF80CA030C80838241800
:1000D0002D18A246671EAB4654465D46AC4201D180
:1000E00000F030F87E460F3E0FCCB6460126334274
:1000F00000D0FB1AA246AB46334318473821000014
:1001000058210000103A02D378C878C1FAD85207B3
:1001100001D330C830C101D504680C6070470000BD
:100120000023002400250026103A01D378C1FBD813
:10013000520700D330C100D50B6070471FB51FBDFB
:1001400010B510BD00F0D8F91146FFF7F7FF02F027
:1001500031F800F0F0F903B4FFF7F2FF03BC00F050
:10016000F7F9000070B505460C46164602E00FCCC4
:100170000FC5103E102EFAD2082E02D303CC03C5B1
:10018000083E042E07D301CC01C5361F03E02178B9
:100190002970641C6D1C761EF9D270BD074880471B
:1001A00007480047FEE7FEE7FEE7FEE7FEE7FEE75B
:1001B00004480549054A064B70470000ED18000841
:1001C000C1000008D8010020D8070020D803002073
:1001D000D8030020FEB5054610460C46184373D0E0
:1001E000AE468C460020AD1A01469C4167D3664658
:1001F000002701243D46B61A9D4102D313463A46D4
:100200002124654676462F04360C3E432D0CB61A43
:100210009D4104D3150C1B042B4312041034654676
:1002200076462F06360A3E432D0AB61A9D4104D360
:10023000150E1B022B4312020834654676462F0723
:1002400036093E432D09B61A9D4104D3150F1B01F3
:100250002B431201241D65467646AF07B6083E4380
:10026000AD08B61A9D4104D3950F9B002B43920015
:10027000A41C65467646EF0776083E436D08B61A1D
:100280009D411AD392185B41641C16E00018764613
:1002900065464941B71A9D410191009009D36046D6
:1002A000B11A98418E468446009801990025401C59
:1002B0006941DD0752082A435B08641EE6D5724691
:1002C000634603B0F0BDFFE700200146C046C046CC
:1002D0002A462346F5E7F8B5042A2CD3830712D023
:1002E0000B78491C0370401C521E83070BD00B78FF
:1002F000491C0370401C521E830704D00B78491C14
:100300000370401C521E8B079B0F05D0C91ADF00DB
:100310002023DE1B08C90AE0FFF724FFF8BD1D46B5
:1003200008C9FD401C46B4402C4310C0121F042ACB
:10033000F5D2F308C91A521EF0D40B78491C037089
:10034000401C521EEAD40B78491C0370401C012A41
:10035000E4D409780170F8BD01E004C0091F042944
:10036000FBD28B0701D50280801CC90700D0027028
:10037000704700290BD0C30702D00270401C491EF1
:10038000022904D3830702D50280801C891EE3E77B
:100390000022EEE70022DFE7002203098B422CD384
:1003A000030A8B4211D300239C464EE003460B43C5
:1003B0003CD4002243088B4231D303098B421CD327
:1003C000030A8B4201D394463FE0C3098B4201D319
:1003D000CB01C01A524183098B4201D38B01C01A51
:1003E000524143098B4201D34B01C01A52410309C8
:1003F0008B4201D30B01C01A5241C3088B4201D377
:10040000CB00C01A524183088B4201D38B00C01A23
:10041000524143088B4201D34B00C01A5241411A4A
:1004200000D201465241104670475DE0CA0F00D02D
:100430004942031000D34042534000229C46030926
:100440008B422DD3030A8B4212D3FC22890112BAAC
:10045000030A8B420CD3890192118B4208D3890184
:1004600092118B4204D389013AD0921100E089099C
:10047000C3098B4201D3CB01C01A524183098B427D
:1004800001D38B01C01A524143098B4201D34B0166
:10049000C01A524103098B4201D30B01C01A5241C9
:1004A000C3088B4201D3CB00C01A524183088B4250
:1004B00001D38B00C01A5241D9D243088B4201D3D9
:1004C0004B00C01A5241411A00D2014663465241C4
:1004D0005B10104601D34042002B00D549427047C3
:1004E00063465B1000D3404201B50020C046C046C1
:1004F00002BD704770477047754600F025F8AE465C
:10050000050069465346C008C000854618B020B5AE
:10051000FFF74EFE60BC00274908B6460026C0C55E
:10052000C0C5C0C5C0C5C0C5C0C5C0C5C0C5403DAB
:1005300049008D46704710B50446C046C046204667
:10054000FFF709FE10BD0000004870477801002049
:1005500001491820ABBEFEE726000200704772B6C4
:10056000FEE730B5014620314A790023022A04D043
:100570000422C2630B71012030BD026814680E258D
:10058000AC43146002681468640864001460446C2E
:100590001C22144001221546006CA54045604A719A
:1005A00018460B7130BD70B50024014620314A79E0
:1005B000022A03D00421C163012418E002681368F1
:1005C0000E25AB431360026813685B085B00136081
:1005D000436C1C221340012215469D40036C5D6054
:1005E0004A7100220A71816B002900D08847204699
:1005F00070BD0000F8B5002303240125BDE032469C
:100600002E469E40B446324079D00E79B607B60FDA
:10061000012E01D0022E17D186682746B6465E000D
:10062000B74000967646BE43B646CF68009EB740B8
:1006300076463743876046686746BE430F79FF06B4
:10064000FF0F9F40374347600E79F643B6070ED041
:10065000C6682746B4465E00B646B7406646BE4307
:10066000B4468F687646B74066463743C7600E7912
:10067000B607B60F022E14D1DE08B6003618009663
:10068000366A5F07B446FE0E0F27B646B740664689
:10069000BE43B4460F697646B74066463743009E70
:1006A000376206682746B4465E00B646B7406646DF
:1006B000BE430F79B446BF07BF0F7646B7406646C4
:1006C000374307604E68B603B60F55D02E4F7E6B8A
:1006D0002E437E639F082D4EBF00BE190096B6685C
:1006E0000F27B4469E07360FB646B7406646BE4350
:1006F00005273F07B446B84202D1002715E03BE08A
:10070000234FB84201D101270FE0224FB84201D157
:1007100002270AE0204FB84201D1032705E01F4F0E
:10072000B84201D1052700E006277646B740664665
:100730003743009EB7601A4E36684F689643FF03F2
:1007400000D51643164F3E607E684F689643BF0340
:1007500000D51643124F7E60BE684F689643FF0275
:1007600000D516430E4FBE60FE684F689643BF0229
:1007700000D516430A4AD6605B1C0A681646DA4062
:1007800000D03CE7F8BD000000100240000001402E
:100790000004005000080050000C0050001C0050E5
:1007A00000040140002A01D08161704781627047D6
:1007B00001488068704700000000002070B5040008
:1007C0000FD021681548086021681548086003CCDF
:1007D00041602068083C21688860FFF7E9FF054612
:1007E0000CE0012070BDFFF7E3FF401B2A2805D96C
:1007F0002068C068400701D0032070BD2068C06831
:100800004007F0D120680269E1688A4201D00161A5
:1008100001E004490160002070BD0000CCCC000064
:1008200055550000AAAA0000006802490160002096
:1008300070470000AAAA000002488168027889185F
:10084000816070470000002010B50848002401684E
:10085000402211430160204600F00AF8002801D030
:10086000012401E000F026F8204610BD00200240DF
:1008700070B504460D4D7D202978C000FFF78CFD32
:1008800001460B480068FFF787FD00F06DFC00286B
:1008900009D1042C07D200222146401E00F022F884
:1008A00000206C6070BD012070BD000000000020C1
:1008B0000C0000200448416B012211434163816B0D
:1008C000020411438163704700100240002805DBD9
:1008D000C106C90E01208840014908607047000028
:1008E00000E100E010B501F0C9FB10BDF8B5044609
:1008F00000680027604D810601D400057ED55E4E5C
:10090000403EB06BC00004D4B06B31040843B06308
:1009100001275A480168C90511D40168821511439D
:100920000160FFF745FF009005E0FFF741FF0099E8
:10093000401A642844D851480068C005F5D531688C
:1009400003200005626801401040884205D103235E
:10095000A0681B051840884208D09003800F032828
:1009600004D13068800301D50120F8BD2869032136
:100970000904084029D00A40824202D02278920617
:1009800006D4A2680A4082421FD0208800051CD5E8
:1009900028692A6988430121C9040A432A612A690E
:1009A0008A432A612861C0050FD5FFF701FF009037
:1009B00008E0FFF7FDFE0099411A3148814201D954
:1009C0000320F8BD28698005F3D561688803800F8E
:1009D000032805D132680005824301400A43326092
:1009E0002869032261681204114008432861002F1E
:1009F00006D0B16B01200007814300E000E0B16345
:100A00002078C00705D0E868E168800880000843C6
:100A1000E8602078800705D5E8680C2188432169C3
:100A20000843E8602078400706D5E868032189027A
:100A3000884361690843E8602078000706D5E868C4
:100A4000032109038843A1690843E8602078400630
:100A500006D5E868012189068843216A0843E860D1
:100A60002078000606D5E868032189048843E169F7
:100A70000843E8600020F8BD4010024000700040CC
:100A800088130000F8B50E46050038D05E480068AF
:100A9000C007C00FB04214D25B4C20684008400031
:100AA00030432060FFF784FE074605E0FFF780FE35
:100AB000C11B564881427AD82068C007C00FB04297
:100AC000F4D12878524C800705D5E068F02188439E
:100AD000A9680843E0602878C00752D068680228F7
:100AE00006D0032807D0216801280AD0890504E030
:100AF0002168890301E021688901002903DB0120C5
:100B0000F8BD4907F9E7E168890889000143E16018
:100B1000FFF74EFE0746686802280AD0032814D063
:100B200001281ED029E0FFF743FEC11B3748814250
:100B30003DD8E0680007800F0228F4D121E0FFF7DC
:100B400037FEC11B3148814231D8E0680007800F71
:100B50000328F4D115E0FFF72BFEC11B2B4881427F
:100B600025D8E0680007800F0128F4D109E0FFF7DD
:100B70001FFEC11B2548814219D8E0680007800F7D
:100B8000F5D121480168C907C90FB14217D90168D9
:100B90004908490031430160FFF70AFE074608E0B3
:100BA00005E0FFF705FEC11B1848814201D903206B
:100BB000F8BD15480068C007C00FB042F1D12878D1
:100BC000400706D5E068072109028843E968084321
:100BD000E0602878000707D5E0680721C90288434C
:100BE0002969C9000843E06000F03AF8E168094A61
:100BF0000906090F515CC8400749086007480068AA
:100C0000FFF736FEF8BD0000002002408813000008
:100C100000100240102200080C00002004000020F8
:100C2000044805490068C968044A4905490F515CF0
:100C3000C84070470C000020001002402922000824
:100C4000044805490068C968044A8904490F515C91
:100C5000C84070470C000020001002402922000804
:100C600070B51A4AD3681A490C2018408D00042820
:100C70000CD04E00082810D00C2810D0506800046A
:100C8000410F0120C003491C884070BD1068C00698
:100C900001D5084670BD284670BD304670BD98022B
:100CA0000C4C000F205C1B029C0FD368641CDB0300
:100CB00001D5314603E01268D20600D4294601F07E
:100CC000B7F922460023FFF785FA70BD00100240F5
:100CD00000093D0020220008FEB505007ED0FE4C34
:100CE000E7680C20E66807400120000406402878E9
:100CF000C00747D0082F05D00C2F0AD101200004CF
:100D0000864206D1206880033CD568680028E5D07B
:100D100038E0012069680004814203D12168014361
:100D2000216011E0052301221B04920499422168ED
:100D300002D111432160F1E7814321602168014024
:100D40000091206890432060686800280DD0FFF76C
:100D50002FFD009005E0FFF72BFD0099401A642855
:100D60007BD820688003F6D50CE0FFF721FD0090CA
:100D700005E0FFF71DFD0099401A6428F0D82068AF
:100D80008003F6D42878800756D50923E868042F15
:100D90000DD00C2F01D1002E09D000283CD02168A5
:100DA000994301432160FFF703FD064628E02168CF
:100DB000490701D5002891D061681F221202914392
:100DC0002A6912021143616021689943014321603D
:100DD000FFF746FFE16809060A0F00E0BFE1BF49DF
:100DE000895CC840BE490860BE480068FFF740FD06
:100DF000002873D120E0FFF7DBFC801B0228AFD86E
:100E000020684007F7D560681F21090288432969D7
:100E10000902084360600FE020684008400020603D
:100E2000FFF7C6FC064604E0FFF7C2FC801B022861
:100E300096D820684007F7D42878C00660D5002FE0
:100E40000CD0E86900284AD02068FF21013108430E
:100E50002060FFF7ADFC06462EE0E5E02068800547
:100E600002D5E8690028A6D06068072149038843B5
:100E7000696A084360606068298C0002000A0906FC
:100E800008436060686A410B0120C003491C884028
:100E9000E16809060A0F9149895CC84090490860D9
:100EA00090480068FFF7E4FC002817D128E0FFF71E
:100EB0007FFC801B0228A2D820688005F7D56068D7
:100EC000072149038843696A084360606068298C88
:100ED0000002000A09060843606011E025E121686C
:100EE000FF20013081432160FFF762FC064604E0E9
:100EF000FFF75EFC801B02289AD820688005F7D493
:100F00002878794E000724D568690028306910D008
:100F1000012108433061FFF74BFC009005E0FFF72B
:100F200047FC0099401A02287ED830698007F6D520
:100F30000FE0400840003061FFF73AFC009005E008
:100F4000FFF736FC0099401A02286DD830698007F7
:100F5000F6D42878400764D500200290A06BC0002A
:100F600006D4A06B012109070843A0630120029069
:100F70005E480168C90511D40168821511430160FA
:100F8000FFF716FC009005E0FFF712FC0099401AED
:100F9000642849D855480068C005F5D5FF20AA68DF
:100FA0000130824203D131690143316111E00121F5
:100FB0008902002A07D005231B029A4203D1326915
:100FC0000A433261EFE73269824332613069884314
:100FD0003061A86800280ED0FFF7EAFB009006E019
:100FE000FFF7E6FB0099411A414881421CD830695D
:100FF0008005F5D50DE0FFF7DBFB009006E0FFF77D
:10100000D7FB0099411A3A4881420DD830698005D2
:10101000F5D40298002804D0A16B01200007814379
:10102000A1632878800600E07EE02ED53148A969CA
:101030004314002916D0A26801210A43A260626B02
:101040000A436263016A19430162FFF7B1FB064676
:1010500004E0FFF7ADFB801B022865D8A06880077D
:10106000F7D512E0A16849084900A160016A9943D7
:101070000162FFF79DFB064604E0FFF799FB801B2A
:10108000022851D8A0688007F7D4A86A002868D041
:101090000C2F4FD0012636060228206805D0B04319
:1010A0002060FFF785FB054640E0B0432060FFF776
:1010B0007FFB074604E0FFF77BFBC01B022833D809
:1010C00020688001F7D4296BE86AE2680843696BFD
:1010D000FD231B049A430FE0001002401022000879
:1010E0000C0000200400002040100240007000406E
:1010F000881300000000014011430843E0602068AD
:1011000030432060FFF754FB054604E0FFF750FB37
:10111000401B022808D820688001F7D521E0FFF79E
:1011200047FB401B022801D90320FEBD2068800137
:10113000F5D416E00128F8D0E06801210904EA6A34
:10114000014091420BD10F2189042A6B0140914249
:1011500005D1032189050840696B884201D001202F
:10116000FEBD0020FEBD0000094910B5401E8842AA
:1011700001D9012010BD074C60610321081F00F058
:101180007DFF0020A06107202061002010BD00002D
:10119000FFFFFF0000E000E070477047704700006D
:1011A000F8B502680446D06911689668A24B0546F6
:1011B0001D402023002D75D0F707A04DFF0FBC4622
:1011C0000D402F436DD02546C7078035002F06D030
:1011D000CF0504D5012717622A683A432A6082079F
:1011E00008D5F20706D0276802223A622A68042747
:1011F0003A432A60420708D5F20706D0266804223F
:1012000032622A68022632432A6002070AD50A4659
:101210001A406646324305D02668082232622E689C
:1012200016432E60020508D54A0106D5012226681C
:10123000D20232622A681A432A602A68002A39D008
:10124000800606D5880604D5616E002901D02046A7
:101250008847286821688968490602D428210842FD
:101260002DD0204600F0E4FB21688868400622D596
:10127000EFF31080012282F310888B6840229343A1
:101280008B6080F31088206F002814D06C49816334
:10129000206FFFF788F900280CD0206F816B08E0E1
:1012A00000E012E0850610D58D060ED5616EA9E02E
:1012B00020468847F8BD2046FFF770FFF8BD20465E
:1012C000FFF76CFF00202860F8BD256E012D7CD152
:1012D000C5067AD5CD0678D51026166222689068A4
:1012E000254640064035002846DA216F08684068E8
:1012F0000004000CE8D02F8B8742E5D9688308688A
:101300000068800633D4EFF31080012181F3108848
:1013100011683701B943116080F31088EFF3108032
:10132000012181F3108821688A68520852008A607E
:1013300080F31088EFF31080012181F31088216879
:101340008A684027BA438A6080F31088E3670020E8
:101350002066EFF31080012181F3108821680A686C
:10136000B2430A6080F31088206FFFF7FAF8288BE9
:10137000698B401A81B231E0288B698B401A81B2A7
:10138000688B0028A0D000299ED0EFF310800125A3
:1013900085F310881568FF272137BD43156080F35A
:1013A0001088EFF31080012282F31088226895687C
:1013B0006D086D00956080F31088E367002020665B
:1013C0006066EFF31080012200E00BE082F31088EA
:1013D00022681368B343136080F310882046FFF738
:1013E000DBFEF8BDC50208D5750206D50120000553
:1013F00010622046FFF7D1FEF8BD050606D50D06A2
:1014000004D5A16E002900D052E7F8BD4006FCD5F6
:101410004806FAD52046EFF31081012484F31088A2
:1014200014684025AC43146081F310888367002161
:10143000816600F001F9F8BD0F08000020010004EA
:101440001D1A000810B5040003D0A06F002802D0B8
:1014500007E0012010BD002174200155204600F056
:1014600027F82420A0672068016849084900016026
:10147000204600F0B5FB0128ECD0606A002802D0BD
:10148000204600F034FA206841680922D2029143D4
:101490004160206881682A22914381602068016848
:1014A000012211430160204600F086FA10BD0000C1
:1014B00010B586B0044614216846FEF76BFF154947
:1014C0002068884224D11448416B012292031143C1
:1014D0004163C16A01221143C162C06A694610407A
:1014E000059003204002009002200190002002900D
:1014F000032003900420049005200007FFF77AF8EA
:10150000002211461B20FFF7EDF91B20FFF7DEF943
:1015100006B010BD003801400010024070B5C36F26
:10152000202B2ED100290BD0002A09D0012483685A
:101530002403A34206D10369002B03D1CB0701D0BA
:10154000012070BD034660331C7D012C19D001249D
:101550001C75002303660C4B04689C420ED0636824
:101560001B020BD5EFF31083012585F31088256846
:101570000126B6063543256083F3108800F030FC61
:1015800070BD022070BD0000004800400548017891
:10159000491C0170044901200860044900200870BA
:1015A00070470000100000201400002011000020EF
:1015B00070B5836F202B38D100290AD0002A08D0BB
:1015C0008568DC01A54206D10369002B03D1CB0756
:1015D00001D0012070BD034660331E7D012E24D052
:1015E00001261E75C164014640310A824A820021EB
:1015F00080228166115021228267A54202D10269B0
:10160000002A10D00A4A82661975EFF31081012270
:1016100082F310880068026880231A43026081F315
:101620001088002070BD034AEDE7022070BD000065
:10163000F31E0008951E00080349012008600349B5
:1016400003200870704700001C00002011000020DB
:10165000FEE70000F0B587B014216846FEF79AFE59
:101660004D48C16A04221143C162C16A114005910B
:10167000C26A80210A43C262C26A0A400592C16AF4
:1016800001263143C162C16A31400591C16A022518
:101690002943C162C06A002228400590052020210C
:1016A0000007FFF77FF800223C493D48FFF77AF832
:1016B0002803009011200004002401906946029440
:1016C0003848FEF797FF092040040190052069463D
:1016D000009602940007FEF78DFFFF200330009074
:1016E00005200194694602940007FEF783FFCC2091
:1016F00000900327052002946946049701950394FE
:101700000007FEF777FF202000900520029469462D
:10171000019603940007FEF76DFF02940097694657
:101720001F48049701950394FEF764FF1B4800903F
:1017300002946946019603941948FEF75BFF0F2057
:10174000000300900294694603970195049414489D
:10175000FEF750FFA8030090052002940394694609
:10176000019504940007FEF745FF2820009002949D
:1017700003946946019504940948FEF73BFF38023B
:101780000090122001A991C10420049069460448E8
:10179000FEF730FF07B0F0BD00100240140C00004F
:1017A000000400500008005010B5094807490160C6
:1017B000032141600749C16007498160FEF7FEFFD0
:1017C000002801D0FEF7CBFE10BD00000030004025
:1017D00024000020FF0F00000809000010B50E488B
:1017E0000C490160E1214902416001210903816046
:1017F0000322520202610021C1608161C1610C2299
:10180000016242614162FFF71DFE002801D0FEF730
:10181000A6FE10BD0038014034000020FEE77047EE
:101820007047000010B5FFF707F80949086800285D
:1018300001D0401C086007480168002901D0491CFC
:10184000016005490868002801D0401C086010BDEF
:1018500014000020180000201C00002030B59DB0AE
:1018600038216846FEF796FD142117A8FEF792FD71
:1018700024210EA8FEF78EFD1B4801680322D20228
:101880009143C214891801600A200090012510209C
:101890000490059502200A900395002480050D9080
:1018A0000B940C946846FFF717FA002801D072B623
:1018B000FEE70F2017900320189019941A94002126
:1018C0001B9417A8FFF7DEF8002801D072B6FEE7D8
:1018D0000EA80E951194FFF709F8002801D072B6F2
:1018E000FEE71DB030BD000000700040704710B52D
:1018F000818CC90707D001684A6801235B049A43B9
:10190000836A1A434A60818C890707D501684A684F
:1019100001231B049A43C36A1A434A60818C490716
:1019200007D501684A6801239B049A43036B1A4355
:101930004A60818C090707D501684A680123DB03E7
:101940009A43436B1A434A60818CC90607D50268E3
:10195000916801231B039943836B19439160818C28
:10196000890607D501688A6801235B039A43C36B24
:101970001A438A60818C490612D503685A6801218E
:101980000905046C8A4322435A60026C8A4207D1DB
:101990000268516803235B059943436C1943516006
:1019A000818C090607D501684A680123DB04806C35
:1019B0009A4302434A6010BDF8B5044600268030C1
:1019C0000660FEF7F5FE054620680068124F000726
:1019D00009D501212B46002249052046009700F039
:1019E000B5FA00280DD12068006840070BD5012109
:1019F0002B46002289052046009700F0A7FA002810
:101A000001D00320F8BD2020A067E067266660347F
:101A100026750020F8BD0000FFFFFF0110B5806AA9
:101A20000022014640314A834A82FFF7B7FB10BDCE
:101A300010B5EFF31081012282F310880268136859
:101A4000FF242134A343136081F31088EFF3108146
:101A5000012282F31088026893685B085B00936040
:101A600081F31088016E01290BD1EFF3108101225F
:101A700082F31088026813681024A343136081F373
:101A800010882021C16700210166416610BD70B534
:101A9000014640318B8BC46F0268222C04D09069C0
:101AA00008210843906170BD526A446D1A4022803B
:101AB000426D921C42654A8B521E4A834A8B002A11
:101AC000F1D1EFF31082012383F3108803681C68BF
:101AD000FF252135AC431C6082F31088EFF31082A0
:101AE000012383F3108803689C68640864009C6089
:101AF00082F310882022C26700224266036E012B07
:101B000002D0FFF743FD70BD0266EFF310820123A0
:101B100083F310880468256810239D43256082F3B1
:101B200010880268D469E443E40600D41362098B88
:101B3000FFF732FB70BD70B5014640318B8BC46F2F
:101B40000268222C04D0906908210843906170BD7E
:101B5000526A1A40436D1A70426D521C42654A8B9C
:101B6000521E4A834A8B002AF1D1EFF310820123DF
:101B700083F3108803681C68FF252135AC431C6083
:101B800082F31088EFF31082012383F31088036837
:101B90009C68640864009C6082F310882022C267FD
:101BA00000224266036E012B02D0FFF7EFFC70BDEE
:101BB0000266EFF31082012383F31088046825681E
:101BC00010239D43256082F310880268D469E443A2
:101BD000E40600D41362098BFFF7DEFA70BD000043
:101BE000F8B50446016880682369E66918436369AB
:101BF000002533431843724A0B68724E3340034347
:101C00000B602168486803231B039843E36818436B
:101C100048602168A069914201D0236A18438B680B
:101C20000B263602B34303438B606749236867483A
:101C30008B420CD1C0688007800F06D0012839D0B4
:101C4000022835D0032821D11EE001271FE060497A
:101C50008B420AD1C0680C21084027D0042829D023
:101C6000082825D00C2811D10EE093420ED1C1686E
:101C700003208002014019D001208002091A19D0E6
:101C8000091A15D0814201D1082700E010274F49D9
:101C9000504840398600934232D1002F0CD0022F99
:101CA0000DD0042F10D0082F7FD126E00027EEE7BB
:101CB0000227ECE70427EAE7FEF7B2FF06E009682F
:101CC000C90605D4304603E0FEF7CAFF002872D0EB
:101CD000626851005118814267D81103814264D370
:101CE000010E06025008002330185941FEF772FA1F
:101CF00003210902411A384A55E00120C003E7E7F1
:101D00000122E369D20393422BD13B0000F0A8F9F2
:101D10000906090C4D114D4D4D274D00FEF780FF72
:101D200009E0FEF78DFF06E00968C90605D43046D4
:101D300003E0FEF795FF00283DD0616840004A08A7
:101D40008018FEF729FB80B20146244A10399142DF
:101D50002BD8511C01400007400F084329E01046D2
:101D6000EBE73B0000F07CF90906090C2112212168
:101D700021232100FEF754FF0AE0FEF761FF07E090
:101D80000968C90606D4304604E00EE0FEF768FF95
:101D9000002810D061684A081018FEF7FDFA80B2DA
:101DA00001460E4A1039914203D9012503E010463D
:101DB000F0E72168C86000206066A0662846F8BD8C
:101DC00000480040F369FFEF003801404010024036
:101DD0000044004000093D00FFFC0F00EFFF000041
:101DE00070B54165014640310A834A83002242664C
:101DF000012384681B03FF259C4204D10469002C45
:101E000013D1214C0AE07F26002C09D001252D0793
:101E1000AC420CD10469002C05D03F248C8307E030
:101E20000469002C01D08E8302E08D8300E08A8358
:101E300080210A502221C167EFF31081012484F32D
:101E400010880468A56801263543A56081F31088D1
:101E50008168994202D10169002912D00B4941667B
:101E600074210A54EFF31081012282F31088006874
:101E70000268FF2321331A43026081F31088002097
:101E800070BD0349EBE70000FF010000371B0008AD
:101E90008F1A000810B5816F212910D101464031F9
:101EA0004A8A002A0CD0C26C03681288D205D20D6F
:101EB0009A62C26C921CC264488A401E488210BD5D
:101EC000EFF31081012282F31088026813688024E6
:101ED000A343136081F31088EFF31081012282F392
:101EE00010880068026840231A43026081F310885A
:101EF00010BD10B5816F21290ED1014640314A8AAB
:101F0000002A0AD0C26C036812789A62C26C521C12
:101F1000C264488A401E488210BDEFF3108101223E
:101F200082F31088026813688024A343136081F34E
:101F30001088EFF31081012282F310880068026894
:101F400040231A43026081F3108810BDFFB581B0B1
:101F500005461746044660350A9E55E0701C53D06E
:101F6000FEF726FC0499401AB04230D8002E2ED03D
:101F700020680168490747D5C069C043000543D4BC
:101F800001202168C0020862EFF31080012181F373
:101F9000108821680B68FF22A13293430B6080F305
:101FA0001088EFF31080012181F3108821688A687E
:101FB000520852008A6080F310882020A067E067F2
:101FC0008034206000202875032005B0F0BDEFF3B9
:101FD0001080012181F3108821680B68FF22A13253
:101FE00093430B6080F31088EFF31080012181F39D
:101FF000108821688A68520852008A6080F310882D
:102000002020A067E067DDE72068C1690298884367
:1020100004D00020B842A1D00020D6E70120F9E783
:1020200010B50248FFF7BCF810BD000034000020D6
:10203000F8B5040C8BB2264682B25E430D0C1046F6
:10204000370C5843360480190021794116466E43F7
:10205000370C36048019794126466E438919F8BD3C
:1020600030B47446641E2578641CAB4200D21D4611
:10207000635D5B00E31830BC184700008307FF2254
:10208000DB0E9A408907090E9940002808DB830877
:1020900009489B001B181868904308431860704754
:1020A0000007000F0838830804489B001B18D869F4
:1020B00090430843D861704700E400E000ED00E081
:1020C00070B51A4C6078042801D100F039F86078B6
:1020D000002808D00025012809D0022811D00328A3
:1020E00000D1657070BD00F079F804201BE0257008
:1020F0000F4800F057F80128F3D10220607001204A
:10210000A060FEF755FB010E206109488030017088
:1021100045708570C570042100F030F804484030E7
:1021200000F06CF80520607070BD00001000002009
:10213000B8000020014900204870704710000020BE
:102140000D4800214268002A04D00A2A02D901223F
:10215000416042708268002A09D07D231B019A42A7
:1021600006D2C1689A10914201D90221417070478C
:102170008160C160704700001000002010B5034668
:10218000074C53202070C81C60700A461946A01CDA
:10219000FEF7A1F843206278611E505410BD000084
:1021A000F80000200078532801D00020704701205B
:1021B00070470000FEF748FBFFF750FBFFF74AFAB5
:1021C000FFF70CFBFFF7F0FAFFF7B4FFFFF778FF1C
:1021D0000148FEF729FBF9E72400002010B5054966
:1021E00003480978012241180348FFF797F910BD09
:1021F000B8000020100000203400002010B5427804
:1022000001460248FFF7D4F910BD00003400002059
:102210000000000000000000010203040607080996
:10222000030406080C10182030000000000102030F
:1022300004000000542200080000002024000000D8
:10224000040100087822000824000020B4070000E0
:102250002001000801000000040000000000000050
:10226000000020000004000000000000000000004A
:08227000000000000000000066
:04000005080000C12E
:00000001FF
